{
    "contractName": "Storage",
    "abi": [
        {
            "inputs": [],
            "stateMutability": "nonpayable",
            "type": "constructor"
        },
        {
            "inputs": [],
            "name": "AdminStatus",
            "outputs": [
                {
                    "internalType": "bool",
                    "name": "stat",
                    "type": "bool"
                }
            ],
            "stateMutability": "view",
            "type": "function"
        },
        {
            "inputs": [
                {
                    "internalType": "string",
                    "name": "name",
                    "type": "string"
                },
                {
                    "internalType": "string",
                    "name": "regNo",
                    "type": "string"
                }
            ],
            "name": "addMember",
            "outputs": [],
            "stateMutability": "payable",
            "type": "function"
        },
        {
            "inputs": [
                {
                    "internalType": "address",
                    "name": "walletAddress",
                    "type": "address"
                },
                {
                    "internalType": "uint256",
                    "name": "addVal",
                    "type": "uint256"
                }
            ],
            "name": "addPoints",
            "outputs": [],
            "stateMutability": "payable",
            "type": "function"
        },
        {
            "inputs": [
                {
                    "internalType": "address",
                    "name": "walletAddress",
                    "type": "address"
                }
            ],
            "name": "deleteUser",
            "outputs": [],
            "stateMutability": "payable",
            "type": "function"
        },
        {
            "inputs": [
                {
                    "internalType": "string",
                    "name": "newRegNo",
                    "type": "string"
                },
                {
                    "internalType": "address",
                    "name": "walletAddress",
                    "type": "address"
                }
            ],
            "name": "editRegNo",
            "outputs": [],
            "stateMutability": "payable",
            "type": "function"
        },
        {
            "inputs": [
                {
                    "internalType": "string",
                    "name": "regNo",
                    "type": "string"
                }
            ],
            "name": "getMemberDetails",
            "outputs": [
                {
                    "components": [
                        {
                            "internalType": "string",
                            "name": "name",
                            "type": "string"
                        },
                        {
                            "internalType": "string",
                            "name": "regNo",
                            "type": "string"
                        },
                        {
                            "internalType": "uint256",
                            "name": "point",
                            "type": "uint256"
                        },
                        {
                            "internalType": "bool",
                            "name": "activated",
                            "type": "bool"
                        },
                        {
                            "internalType": "bool",
                            "name": "coordinator",
                            "type": "bool"
                        },
                        {
                            "internalType": "address",
                            "name": "walletAddress",
                            "type": "address"
                        }
                    ],
                    "internalType": "struct Storage.Member",
                    "name": "data",
                    "type": "tuple"
                }
            ],
            "stateMutability": "view",
            "type": "function"
        },
        {
            "inputs": [
                {
                    "internalType": "address",
                    "name": "walletAddress",
                    "type": "address"
                }
            ],
            "name": "makeAdmin",
            "outputs": [],
            "stateMutability": "payable",
            "type": "function"
        },
        {
            "inputs": [
                {
                    "internalType": "address",
                    "name": "walletAddress",
                    "type": "address"
                },
                {
                    "internalType": "uint256",
                    "name": "minVal",
                    "type": "uint256"
                }
            ],
            "name": "minusPoints",
            "outputs": [],
            "stateMutability": "payable",
            "type": "function"
        },
        {
            "inputs": [],
            "name": "registerStatus",
            "outputs": [
                {
                    "internalType": "bool",
                    "name": "",
                    "type": "bool"
                }
            ],
            "stateMutability": "view",
            "type": "function"
        },
        {
            "inputs": [],
            "name": "returnData",
            "outputs": [
                {
                    "components": [
                        {
                            "internalType": "string",
                            "name": "name",
                            "type": "string"
                        },
                        {
                            "internalType": "string",
                            "name": "regNo",
                            "type": "string"
                        },
                        {
                            "internalType": "uint256",
                            "name": "point",
                            "type": "uint256"
                        },
                        {
                            "internalType": "bool",
                            "name": "activated",
                            "type": "bool"
                        },
                        {
                            "internalType": "bool",
                            "name": "coordinator",
                            "type": "bool"
                        },
                        {
                            "internalType": "address",
                            "name": "walletAddress",
                            "type": "address"
                        }
                    ],
                    "internalType": "struct Storage.Member[]",
                    "name": "",
                    "type": "tuple[]"
                }
            ],
            "stateMutability": "view",
            "type": "function"
        },
        {
            "inputs": [
                {
                    "internalType": "address",
                    "name": "walletAddress",
                    "type": "address"
                }
            ],
            "name": "revertCoordinator",
            "outputs": [],
            "stateMutability": "payable",
            "type": "function"
        },
        {
            "inputs": [
                {
                    "internalType": "address",
                    "name": "walletAddress",
                    "type": "address"
                }
            ],
            "name": "revokeAdmin",
            "outputs": [],
            "stateMutability": "payable",
            "type": "function"
        },
        {
            "inputs": [
                {
                    "internalType": "address",
                    "name": "walletAddress",
                    "type": "address"
                }
            ],
            "name": "setCoordinator",
            "outputs": [],
            "stateMutability": "payable",
            "type": "function"
        },
        {
            "inputs": [
                {
                    "internalType": "address",
                    "name": "walletAddress",
                    "type": "address"
                }
            ],
            "name": "terminateUser",
            "outputs": [],
            "stateMutability": "payable",
            "type": "function"
        }
    ],
    "bytecode": "608060405234801561001057600080fd5b50336000908152600360205260408120805460ff1916600117905560065561136e8061003d6000396000f3fe6080604052600436106100dd5760003560e01c80638ea981171161007f578063ce2813aa11610059578063ce2813aa146101c5578063ea6c38ef146101ea578063ebddbaf6146101fd578063fe1d3fd21461021f57600080fd5b80638ea981171461018c5780639b9501de1461019f578063a2453965146101b257600080fd5b8063472905ca116100bb578063472905ca1461011d57806347e5106414610130578063507cd30f146101665780635c60f2261461017957600080fd5b806310960738146100e25780632d345670146100f757806332e5a7ea1461010a575b600080fd5b6100f56100f0366004610daa565b61024c565b005b6100f5610105366004610daa565b610303565b6100f5610118366004610e6f565b610383565b6100f561012b366004610daa565b6103d3565b34801561013c57600080fd5b503360009081526003602052604090205460ff165b60405190151581526020015b60405180910390f35b6100f5610174366004610ebd565b610456565b6100f5610187366004610daa565b6104dc565b6100f561019a366004610daa565b6105fb565b6100f56101ad366004610ebd565b610683565b6100f56101c0366004610daa565b610700565b3480156101d157600080fd5b503360009081526004602052604090205460ff16610151565b6100f56101f8366004610ee7565b610782565b34801561020957600080fd5b5061021261096a565b60405161015d919061100a565b34801561022b57600080fd5b5061023f61023a36600461106c565b610b2f565b60405161015d91906110a9565b3360009081526003602052604090205460ff166102aa5760405162461bcd60e51b8152602060048201526017602482015276139bdb8818591b5a5b881858d8d95cdcc819195b9a5959604a1b60448201526064015b60405180910390fd5b6001600160a01b0381166000908152600260205260408120546001805490919081106102d8576102d86110bc565b906000526020600020906004020160030160016101000a81548160ff02191690831515021790555050565b3360009081526003602052604090205460ff166103625760405162461bcd60e51b815260206004820152601860248201527f4e6f6e2061646d696e20616363657373207265766f6b6564000000000000000060448201526064016102a1565b6001600160a01b03166000908152600360205260409020805460ff19169055565b6001600160a01b0381166000908152600260205260409020546001805484929081106103b1576103b16110bc565b906000526020600020906004020160010190816103ce9190611154565b505050565b3360009081526003602052604090205460ff166104325760405162461bcd60e51b815260206004820152601860248201527f4e6f6e2061646d696e20206163636573732064656e696564000000000000000060448201526064016102a1565b6001600160a01b03166000908152600360205260409020805460ff19166001179055565b3360009081526003602052604090205460ff166104855760405162461bcd60e51b81526004016102a190611214565b6001600160a01b0382166000908152600260205260409020546001805483929081106104b3576104b36110bc565b906000526020600020906004020160020160008282546104d39190611261565b90915550505050565b3360009081526003602052604090205460ff1661050b5760405162461bcd60e51b81526004016102a190611214565b6001600160a01b03811660009081526004602052604090205460ff1661056b5760405162461bcd60e51b815260206004820152601560248201527452656769737465726564207573657273206f6e6c7960581b60448201526064016102a1565b6001600160a01b038116600090815260026020526040812054600180549091908110610599576105996110bc565b600091825260208083206003600493840290910101805494151560ff199586161790556001600160a01b0385168084529181526040808420805490951690945583518082018552838152918352829052919020906105f79082611154565b5050565b3360009081526003602052604090205460ff166106545760405162461bcd60e51b8152602060048201526017602482015276139bdb8818591b5a5b881858d8d95cdcc819195b9a5959604a1b60448201526064016102a1565b6001600160a01b038116600090815260026020526040902054600180549091829181106102d8576102d86110bc565b3360009081526003602052604090205460ff166106b25760405162461bcd60e51b81526004016102a190611214565b6001600160a01b0382166000908152600260205260409020546001805483929081106106e0576106e06110bc565b906000526020600020906004020160020160008282546104d3919061127a565b3360009081526003602052604090205460ff1661072f5760405162461bcd60e51b81526004016102a190611214565b6001600160a01b03811660009081526002602052604081205460018054909190811061075d5761075d6110bc565b60009182526020909120600490910201600301805460ff191691151591909117905550565b3360009081526004602052604090205460ff16156107e25760405162461bcd60e51b815260206004820152601760248201527f5573657220616c7265616479207265676973746572656400000000000000000060448201526064016102a1565b336000908152600460209081526040808320805460ff1916600190811790915560068054600290945291842083905592909161081f908490611261565b90915550506005805460018181019092557f036b6384b5eca791c62761152d0c79bb0604c104a5fb6f4eb0703f3154bb3db00180546001600160a01b031916339081179091556040805160c081018252858152602081018590526000918101829052606081018490526080810182905260a081019290925282548084018455929052805190916004027fb10e2d527612073b26eecdfd717e6a320cf44b4afac2b0732d9fcbe2b7fa0cf6019081906108d79082611154565b50602082015160018201906108ec9082611154565b506040828101516002830155606083015160039092018054608085015160a0909501516001600160a01b0316620100000262010000600160b01b03199515156101000261ff00199515159590951661ffff19909216919091179390931793909316919091179091553360009081526020819052206103ce8282611154565b60606001805480602002602001604051908101604052809291908181526020016000905b82821015610b2657838290600052602060002090600402016040518060c00160405290816000820180546109c1906110d2565b80601f01602080910402602001604051908101604052809291908181526020018280546109ed906110d2565b8015610a3a5780601f10610a0f57610100808354040283529160200191610a3a565b820191906000526020600020905b815481529060010190602001808311610a1d57829003601f168201915b50505050508152602001600182018054610a53906110d2565b80601f0160208091040260200160405190810160405280929190818152602001828054610a7f906110d2565b8015610acc5780601f10610aa157610100808354040283529160200191610acc565b820191906000526020600020905b815481529060010190602001808311610aaf57829003601f168201915b5050509183525050600282015460208083019190915260039092015460ff80821615156040840152610100820416151560608301526201000090046001600160a01b0316608090910152908252600192909201910161098e565b50505050905090565b6040805160c081018252606080825260208201819052600092820183905281018290526080810182905260a08101829052905b600154811015610d885782604051602001610b7d919061128d565b6040516020818303038152906040528051906020012060018281548110610ba657610ba66110bc565b9060005260206000209060040201600101604051602001610bc791906112a9565b6040516020818303038152906040528051906020012003610d765760018181548110610bf557610bf56110bc565b90600052602060002090600402016040518060c0016040529081600082018054610c1e906110d2565b80601f0160208091040260200160405190810160405280929190818152602001828054610c4a906110d2565b8015610c975780601f10610c6c57610100808354040283529160200191610c97565b820191906000526020600020905b815481529060010190602001808311610c7a57829003601f168201915b50505050508152602001600182018054610cb0906110d2565b80601f0160208091040260200160405190810160405280929190818152602001828054610cdc906110d2565b8015610d295780601f10610cfe57610100808354040283529160200191610d29565b820191906000526020600020905b815481529060010190602001808311610d0c57829003601f168201915b50505091835250506002820154602082015260039091015460ff80821615156040840152610100820416151560608301526201000090046001600160a01b03166080909101529392505050565b80610d808161131f565b915050610b62565b50919050565b80356001600160a01b0381168114610da557600080fd5b919050565b600060208284031215610dbc57600080fd5b610dc582610d8e565b9392505050565b634e487b7160e01b600052604160045260246000fd5b600082601f830112610df357600080fd5b813567ffffffffffffffff80821115610e0e57610e0e610dcc565b604051601f8301601f19908116603f01168101908282118183101715610e3657610e36610dcc565b81604052838152866020858801011115610e4f57600080fd5b836020870160208301376000602085830101528094505050505092915050565b60008060408385031215610e8257600080fd5b823567ffffffffffffffff811115610e9957600080fd5b610ea585828601610de2565b925050610eb460208401610d8e565b90509250929050565b60008060408385031215610ed057600080fd5b610ed983610d8e565b946020939093013593505050565b60008060408385031215610efa57600080fd5b823567ffffffffffffffff80821115610f1257600080fd5b610f1e86838701610de2565b93506020850135915080821115610f3457600080fd5b50610f4185828601610de2565b9150509250929050565b60005b83811015610f66578181015183820152602001610f4e565b50506000910152565b60008151808452610f87816020860160208601610f4b565b601f01601f19169290920160200192915050565b6000815160c08452610fb060c0850182610f6f565b905060208301518482036020860152610fc98282610f6f565b6040858101519087015260608086015115159087015260808086015115159087015260a0948501516001600160a01b03169490950193909352509192915050565b6000602080830181845280855180835260408601915060408160051b870101925083870160005b8281101561105f57603f1988860301845261104d858351610f9b565b94509285019290850190600101611031565b5092979650505050505050565b60006020828403121561107e57600080fd5b813567ffffffffffffffff81111561109557600080fd5b6110a184828501610de2565b949350505050565b602081526000610dc56020830184610f9b565b634e487b7160e01b600052603260045260246000fd5b600181811c908216806110e657607f821691505b602082108103610d8857634e487b7160e01b600052602260045260246000fd5b601f8211156103ce57600081815260208120601f850160051c8101602086101561112d5750805b601f850160051c820191505b8181101561114c57828155600101611139565b505050505050565b815167ffffffffffffffff81111561116e5761116e610dcc565b6111828161117c84546110d2565b84611106565b602080601f8311600181146111b7576000841561119f5750858301515b600019600386901b1c1916600185901b17855561114c565b600085815260208120601f198616915b828110156111e6578886015182559484019460019091019084016111c7565b50858210156112045787850151600019600388901b60f8161c191681555b5050505050600190811b01905550565b60208082526017908201527f4e6f6e2d61646d696e206163636573732064656e696564000000000000000000604082015260600190565b634e487b7160e01b600052601160045260246000fd5b808201808211156112745761127461124b565b92915050565b818103818111156112745761127461124b565b6000825161129f818460208701610f4b565b9190910192915050565b60008083546112b7816110d2565b600182811680156112cf57600181146112e457611313565b60ff1984168752821515830287019450611313565b8760005260208060002060005b8581101561130a5781548a8201529084019082016112f1565b50505082870194505b50929695505050505050565b6000600182016113315761133161124b565b506001019056fea264697066735822122048d12df2809ad6ec526eb7f0130ea9547cc7e7247a73987bab522b9cea1d24f864736f6c63430008110033",
    "sourcePath": "d:/MainFolders/programcodestuff/BLOCKCHAIN/DAOcommunity/leaderboard/Dao_Community_Leaderboard/src/contract/contracts/Lock.sol",
    "compiler": {
        "name": "solc",
        "version": "0.8.17+commit.8df45f5f"
    },
    "functionHashes": {
        "AdminStatus()": "47e51064",
        "addMember(string,string)": "ea6c38ef",
        "addPoints(address,uint256)": "507cd30f",
        "deleteUser(address)": "5c60f226",
        "editRegNo(string,address)": "32e5a7ea",
        "getMemberDetails(string)": "fe1d3fd2",
        "makeAdmin(address)": "472905ca",
        "minusPoints(address,uint256)": "9b9501de",
        "registerStatus()": "ce2813aa",
        "returnData()": "ebddbaf6",
        "revertCoordinator(address)": "10960738",
        "revokeAdmin(address)": "2d345670",
        "setCoordinator(address)": "8ea98117",
        "terminateUser(address)": "a2453965"
    },
    "gasEstimates": {
        "creation": {
            "codeDepositCost": "994800",
            "executionCost": "30329",
            "totalCost": "1025129"
        },
        "external": {
            "AdminStatus()": "2395",
            "addMember(string,string)": "infinite",
            "addPoints(address,uint256)": "31251",
            "deleteUser(address)": "infinite",
            "editRegNo(string,address)": "infinite",
            "getMemberDetails(string)": "infinite",
            "makeAdmin(address)": "26800",
            "minusPoints(address,uint256)": "31229",
            "registerStatus()": "2383",
            "returnData()": "infinite",
            "revertCoordinator(address)": "31202",
            "revokeAdmin(address)": "26817",
            "setCoordinator(address)": "31204",
            "terminateUser(address)": "31179"
        }
    }
}