{
  "_format": "hh-sol-artifact-1",
  "contractName": "DAOboard",
  "sourceName": "contracts/DAOboard.sol",
  "abi": [
    {
      "inputs": [],
      "stateMutability": "nonpayable",
      "type": "constructor"
    },
    {
      "anonymous": false,
      "inputs": [
        {
          "indexed": true,
          "internalType": "address",
          "name": "owner",
          "type": "address"
        },
        {
          "indexed": true,
          "internalType": "address",
          "name": "spender",
          "type": "address"
        },
        {
          "indexed": false,
          "internalType": "uint256",
          "name": "value",
          "type": "uint256"
        }
      ],
      "name": "Approval",
      "type": "event"
    },
    {
      "anonymous": false,
      "inputs": [
        {
          "indexed": true,
          "internalType": "address",
          "name": "previousOwner",
          "type": "address"
        },
        {
          "indexed": true,
          "internalType": "address",
          "name": "newOwner",
          "type": "address"
        }
      ],
      "name": "OwnershipTransferred",
      "type": "event"
    },
    {
      "anonymous": false,
      "inputs": [
        {
          "indexed": true,
          "internalType": "address",
          "name": "from",
          "type": "address"
        },
        {
          "indexed": true,
          "internalType": "address",
          "name": "to",
          "type": "address"
        },
        {
          "indexed": false,
          "internalType": "uint256",
          "name": "value",
          "type": "uint256"
        }
      ],
      "name": "Transfer",
      "type": "event"
    },
    {
      "inputs": [],
      "name": "AdminStatus",
      "outputs": [
        {
          "internalType": "bool",
          "name": "",
          "type": "bool"
        }
      ],
      "stateMutability": "view",
      "type": "function"
    },
    {
      "inputs": [],
      "name": "Owner",
      "outputs": [
        {
          "internalType": "address",
          "name": "",
          "type": "address"
        }
      ],
      "stateMutability": "view",
      "type": "function"
    },
    {
      "inputs": [
        {
          "internalType": "string",
          "name": "name",
          "type": "string"
        },
        {
          "internalType": "string",
          "name": "regNo",
          "type": "string"
        }
      ],
      "name": "addMember",
      "outputs": [],
      "stateMutability": "payable",
      "type": "function"
    },
    {
      "inputs": [
        {
          "internalType": "address",
          "name": "walletAddress",
          "type": "address"
        },
        {
          "internalType": "uint256",
          "name": "addVal",
          "type": "uint256"
        }
      ],
      "name": "addPoints",
      "outputs": [],
      "stateMutability": "payable",
      "type": "function"
    },
    {
      "inputs": [
        {
          "internalType": "string",
          "name": "taskName",
          "type": "string"
        },
        {
          "internalType": "string",
          "name": "taskDesc",
          "type": "string"
        },
        {
          "internalType": "uint256",
          "name": "points",
          "type": "uint256"
        }
      ],
      "name": "addTask",
      "outputs": [],
      "stateMutability": "nonpayable",
      "type": "function"
    },
    {
      "inputs": [
        {
          "internalType": "address",
          "name": "owner",
          "type": "address"
        },
        {
          "internalType": "address",
          "name": "spender",
          "type": "address"
        }
      ],
      "name": "allowance",
      "outputs": [
        {
          "internalType": "uint256",
          "name": "",
          "type": "uint256"
        }
      ],
      "stateMutability": "view",
      "type": "function"
    },
    {
      "inputs": [
        {
          "internalType": "address",
          "name": "spender",
          "type": "address"
        },
        {
          "internalType": "uint256",
          "name": "amount",
          "type": "uint256"
        }
      ],
      "name": "approve",
      "outputs": [
        {
          "internalType": "bool",
          "name": "",
          "type": "bool"
        }
      ],
      "stateMutability": "nonpayable",
      "type": "function"
    },
    {
      "inputs": [
        {
          "internalType": "address",
          "name": "member_approval",
          "type": "address"
        },
        {
          "internalType": "uint256",
          "name": "val",
          "type": "uint256"
        }
      ],
      "name": "approveTx",
      "outputs": [],
      "stateMutability": "nonpayable",
      "type": "function"
    },
    {
      "inputs": [
        {
          "internalType": "address",
          "name": "account",
          "type": "address"
        }
      ],
      "name": "balanceOf",
      "outputs": [
        {
          "internalType": "uint256",
          "name": "",
          "type": "uint256"
        }
      ],
      "stateMutability": "view",
      "type": "function"
    },
    {
      "inputs": [
        {
          "internalType": "uint256",
          "name": "taskId",
          "type": "uint256"
        }
      ],
      "name": "closeTask",
      "outputs": [],
      "stateMutability": "nonpayable",
      "type": "function"
    },
    {
      "inputs": [],
      "name": "decimals",
      "outputs": [
        {
          "internalType": "uint8",
          "name": "",
          "type": "uint8"
        }
      ],
      "stateMutability": "view",
      "type": "function"
    },
    {
      "inputs": [
        {
          "internalType": "address",
          "name": "spender",
          "type": "address"
        },
        {
          "internalType": "uint256",
          "name": "subtractedValue",
          "type": "uint256"
        }
      ],
      "name": "decreaseAllowance",
      "outputs": [
        {
          "internalType": "bool",
          "name": "",
          "type": "bool"
        }
      ],
      "stateMutability": "nonpayable",
      "type": "function"
    },
    {
      "inputs": [
        {
          "internalType": "uint256",
          "name": "taskId",
          "type": "uint256"
        }
      ],
      "name": "deleteTask",
      "outputs": [],
      "stateMutability": "nonpayable",
      "type": "function"
    },
    {
      "inputs": [
        {
          "internalType": "address",
          "name": "walletAddress",
          "type": "address"
        }
      ],
      "name": "deleteUser",
      "outputs": [],
      "stateMutability": "payable",
      "type": "function"
    },
    {
      "inputs": [
        {
          "internalType": "string",
          "name": "newRegNo",
          "type": "string"
        },
        {
          "internalType": "address",
          "name": "walletAddress",
          "type": "address"
        }
      ],
      "name": "editRegNo",
      "outputs": [],
      "stateMutability": "payable",
      "type": "function"
    },
    {
      "inputs": [],
      "name": "getLength",
      "outputs": [
        {
          "internalType": "uint256",
          "name": "",
          "type": "uint256"
        }
      ],
      "stateMutability": "view",
      "type": "function"
    },
    {
      "inputs": [
        {
          "internalType": "string",
          "name": "regNo",
          "type": "string"
        }
      ],
      "name": "getMemberDetails",
      "outputs": [
        {
          "components": [
            {
              "internalType": "string",
              "name": "name",
              "type": "string"
            },
            {
              "internalType": "string",
              "name": "regNo",
              "type": "string"
            },
            {
              "internalType": "uint256",
              "name": "point",
              "type": "uint256"
            },
            {
              "internalType": "bool",
              "name": "activated",
              "type": "bool"
            },
            {
              "internalType": "bool",
              "name": "coordinator",
              "type": "bool"
            },
            {
              "internalType": "string",
              "name": "role",
              "type": "string"
            },
            {
              "internalType": "address",
              "name": "walletAddress",
              "type": "address"
            },
            {
              "internalType": "uint256",
              "name": "claimableTokens",
              "type": "uint256"
            },
            {
              "internalType": "bool",
              "name": "underTask",
              "type": "bool"
            }
          ],
          "internalType": "struct DAOboard.Member",
          "name": "data",
          "type": "tuple"
        }
      ],
      "stateMutability": "view",
      "type": "function"
    },
    {
      "inputs": [
        {
          "internalType": "address",
          "name": "sender",
          "type": "address"
        }
      ],
      "name": "giveId",
      "outputs": [
        {
          "internalType": "uint256",
          "name": "",
          "type": "uint256"
        }
      ],
      "stateMutability": "view",
      "type": "function"
    },
    {
      "inputs": [
        {
          "internalType": "address",
          "name": "spender",
          "type": "address"
        },
        {
          "internalType": "uint256",
          "name": "addedValue",
          "type": "uint256"
        }
      ],
      "name": "increaseAllowance",
      "outputs": [
        {
          "internalType": "bool",
          "name": "",
          "type": "bool"
        }
      ],
      "stateMutability": "nonpayable",
      "type": "function"
    },
    {
      "inputs": [
        {
          "internalType": "address",
          "name": "",
          "type": "address"
        }
      ],
      "name": "isAdmin",
      "outputs": [
        {
          "internalType": "bool",
          "name": "",
          "type": "bool"
        }
      ],
      "stateMutability": "view",
      "type": "function"
    },
    {
      "inputs": [
        {
          "internalType": "uint256",
          "name": "taskId",
          "type": "uint256"
        },
        {
          "internalType": "address",
          "name": "walletAddress",
          "type": "address"
        }
      ],
      "name": "istaskCompleted",
      "outputs": [
        {
          "internalType": "bool",
          "name": "",
          "type": "bool"
        }
      ],
      "stateMutability": "nonpayable",
      "type": "function"
    },
    {
      "inputs": [],
      "name": "length",
      "outputs": [
        {
          "internalType": "uint256",
          "name": "",
          "type": "uint256"
        }
      ],
      "stateMutability": "view",
      "type": "function"
    },
    {
      "inputs": [
        {
          "internalType": "address",
          "name": "walletAddress",
          "type": "address"
        }
      ],
      "name": "makeAdmin",
      "outputs": [],
      "stateMutability": "payable",
      "type": "function"
    },
    {
      "inputs": [
        {
          "internalType": "uint256",
          "name": "",
          "type": "uint256"
        }
      ],
      "name": "members",
      "outputs": [
        {
          "internalType": "string",
          "name": "name",
          "type": "string"
        },
        {
          "internalType": "string",
          "name": "regNo",
          "type": "string"
        },
        {
          "internalType": "uint256",
          "name": "point",
          "type": "uint256"
        },
        {
          "internalType": "bool",
          "name": "activated",
          "type": "bool"
        },
        {
          "internalType": "bool",
          "name": "coordinator",
          "type": "bool"
        },
        {
          "internalType": "string",
          "name": "role",
          "type": "string"
        },
        {
          "internalType": "address",
          "name": "walletAddress",
          "type": "address"
        },
        {
          "internalType": "uint256",
          "name": "claimableTokens",
          "type": "uint256"
        },
        {
          "internalType": "bool",
          "name": "underTask",
          "type": "bool"
        }
      ],
      "stateMutability": "view",
      "type": "function"
    },
    {
      "inputs": [
        {
          "internalType": "address",
          "name": "walletAddress",
          "type": "address"
        },
        {
          "internalType": "uint256",
          "name": "minVal",
          "type": "uint256"
        }
      ],
      "name": "minusPoints",
      "outputs": [],
      "stateMutability": "payable",
      "type": "function"
    },
    {
      "inputs": [],
      "name": "name",
      "outputs": [
        {
          "internalType": "string",
          "name": "",
          "type": "string"
        }
      ],
      "stateMutability": "view",
      "type": "function"
    },
    {
      "inputs": [],
      "name": "owner",
      "outputs": [
        {
          "internalType": "address",
          "name": "",
          "type": "address"
        }
      ],
      "stateMutability": "view",
      "type": "function"
    },
    {
      "inputs": [
        {
          "internalType": "uint256",
          "name": "val",
          "type": "uint256"
        }
      ],
      "name": "pointsToToken",
      "outputs": [],
      "stateMutability": "payable",
      "type": "function"
    },
    {
      "inputs": [
        {
          "internalType": "uint256",
          "name": "taskId",
          "type": "uint256"
        },
        {
          "internalType": "string",
          "name": "comments",
          "type": "string"
        }
      ],
      "name": "registerForTask",
      "outputs": [],
      "stateMutability": "nonpayable",
      "type": "function"
    },
    {
      "inputs": [],
      "name": "registerStatus",
      "outputs": [
        {
          "internalType": "bool",
          "name": "",
          "type": "bool"
        }
      ],
      "stateMutability": "view",
      "type": "function"
    },
    {
      "inputs": [],
      "name": "renounceOwnership",
      "outputs": [],
      "stateMutability": "nonpayable",
      "type": "function"
    },
    {
      "inputs": [
        {
          "internalType": "uint256",
          "name": "taskId",
          "type": "uint256"
        }
      ],
      "name": "reopenTask",
      "outputs": [],
      "stateMutability": "nonpayable",
      "type": "function"
    },
    {
      "inputs": [],
      "name": "returnData",
      "outputs": [
        {
          "components": [
            {
              "internalType": "string",
              "name": "name",
              "type": "string"
            },
            {
              "internalType": "string",
              "name": "regNo",
              "type": "string"
            },
            {
              "internalType": "uint256",
              "name": "point",
              "type": "uint256"
            },
            {
              "internalType": "bool",
              "name": "activated",
              "type": "bool"
            },
            {
              "internalType": "bool",
              "name": "coordinator",
              "type": "bool"
            },
            {
              "internalType": "string",
              "name": "role",
              "type": "string"
            },
            {
              "internalType": "address",
              "name": "walletAddress",
              "type": "address"
            },
            {
              "internalType": "uint256",
              "name": "claimableTokens",
              "type": "uint256"
            },
            {
              "internalType": "bool",
              "name": "underTask",
              "type": "bool"
            }
          ],
          "internalType": "struct DAOboard.Member[]",
          "name": "",
          "type": "tuple[]"
        }
      ],
      "stateMutability": "view",
      "type": "function"
    },
    {
      "inputs": [
        {
          "internalType": "address",
          "name": "walletAddress",
          "type": "address"
        }
      ],
      "name": "returnRegNo",
      "outputs": [
        {
          "internalType": "string",
          "name": "",
          "type": "string"
        }
      ],
      "stateMutability": "view",
      "type": "function"
    },
    {
      "inputs": [],
      "name": "returnRegisteredAddresses",
      "outputs": [
        {
          "internalType": "address[]",
          "name": "",
          "type": "address[]"
        }
      ],
      "stateMutability": "view",
      "type": "function"
    },
    {
      "inputs": [
        {
          "internalType": "uint256",
          "name": "taskId",
          "type": "uint256"
        },
        {
          "internalType": "address",
          "name": "userAddress",
          "type": "address"
        }
      ],
      "name": "returnTaskComments",
      "outputs": [
        {
          "internalType": "string",
          "name": "",
          "type": "string"
        }
      ],
      "stateMutability": "view",
      "type": "function"
    },
    {
      "inputs": [
        {
          "internalType": "uint256",
          "name": "taskId",
          "type": "uint256"
        },
        {
          "internalType": "address",
          "name": "userAddress",
          "type": "address"
        }
      ],
      "name": "returnTaskDone",
      "outputs": [
        {
          "internalType": "bool",
          "name": "",
          "type": "bool"
        }
      ],
      "stateMutability": "view",
      "type": "function"
    },
    {
      "inputs": [
        {
          "internalType": "uint256",
          "name": "taskId",
          "type": "uint256"
        },
        {
          "internalType": "address",
          "name": "userAddress",
          "type": "address"
        }
      ],
      "name": "returnTaskEligible",
      "outputs": [
        {
          "internalType": "bool",
          "name": "",
          "type": "bool"
        }
      ],
      "stateMutability": "view",
      "type": "function"
    },
    {
      "inputs": [
        {
          "internalType": "address",
          "name": "walletAddress",
          "type": "address"
        }
      ],
      "name": "returnTaskRegistrations",
      "outputs": [
        {
          "internalType": "uint256",
          "name": "",
          "type": "uint256"
        }
      ],
      "stateMutability": "view",
      "type": "function"
    },
    {
      "inputs": [],
      "name": "returnTasks",
      "outputs": [
        {
          "components": [
            {
              "internalType": "uint256",
              "name": "taskId",
              "type": "uint256"
            },
            {
              "internalType": "string",
              "name": "taskName",
              "type": "string"
            },
            {
              "internalType": "string",
              "name": "taskDesc",
              "type": "string"
            },
            {
              "internalType": "uint256",
              "name": "pointsAlotted",
              "type": "uint256"
            },
            {
              "internalType": "bool",
              "name": "status",
              "type": "bool"
            },
            {
              "internalType": "uint256",
              "name": "count",
              "type": "uint256"
            },
            {
              "internalType": "address",
              "name": "initiator",
              "type": "address"
            },
            {
              "internalType": "uint256",
              "name": "timeInitiated",
              "type": "uint256"
            }
          ],
          "internalType": "struct DAOboard.Task[]",
          "name": "",
          "type": "tuple[]"
        }
      ],
      "stateMutability": "view",
      "type": "function"
    },
    {
      "inputs": [
        {
          "internalType": "address",
          "name": "walletAddress",
          "type": "address"
        }
      ],
      "name": "revertCoordinator",
      "outputs": [],
      "stateMutability": "payable",
      "type": "function"
    },
    {
      "inputs": [
        {
          "internalType": "address",
          "name": "walletAddress",
          "type": "address"
        }
      ],
      "name": "revokeAdmin",
      "outputs": [],
      "stateMutability": "payable",
      "type": "function"
    },
    {
      "inputs": [
        {
          "internalType": "address",
          "name": "walletAddress",
          "type": "address"
        },
        {
          "internalType": "string",
          "name": "department",
          "type": "string"
        }
      ],
      "name": "setCoordinator",
      "outputs": [],
      "stateMutability": "payable",
      "type": "function"
    },
    {
      "inputs": [],
      "name": "symbol",
      "outputs": [
        {
          "internalType": "string",
          "name": "",
          "type": "string"
        }
      ],
      "stateMutability": "view",
      "type": "function"
    },
    {
      "inputs": [
        {
          "internalType": "uint256",
          "name": "taskId",
          "type": "uint256"
        },
        {
          "internalType": "address",
          "name": "walletAddress",
          "type": "address"
        }
      ],
      "name": "taskAdmin",
      "outputs": [],
      "stateMutability": "nonpayable",
      "type": "function"
    },
    {
      "inputs": [
        {
          "internalType": "uint256",
          "name": "",
          "type": "uint256"
        }
      ],
      "name": "taskArray",
      "outputs": [
        {
          "internalType": "uint256",
          "name": "taskId",
          "type": "uint256"
        },
        {
          "internalType": "string",
          "name": "taskName",
          "type": "string"
        },
        {
          "internalType": "string",
          "name": "taskDesc",
          "type": "string"
        },
        {
          "internalType": "uint256",
          "name": "pointsAlotted",
          "type": "uint256"
        },
        {
          "internalType": "bool",
          "name": "status",
          "type": "bool"
        },
        {
          "internalType": "uint256",
          "name": "count",
          "type": "uint256"
        },
        {
          "internalType": "address",
          "name": "initiator",
          "type": "address"
        },
        {
          "internalType": "uint256",
          "name": "timeInitiated",
          "type": "uint256"
        }
      ],
      "stateMutability": "view",
      "type": "function"
    },
    {
      "inputs": [
        {
          "internalType": "uint256",
          "name": "",
          "type": "uint256"
        },
        {
          "internalType": "address",
          "name": "",
          "type": "address"
        }
      ],
      "name": "taskComments",
      "outputs": [
        {
          "internalType": "string",
          "name": "",
          "type": "string"
        }
      ],
      "stateMutability": "view",
      "type": "function"
    },
    {
      "inputs": [
        {
          "internalType": "uint256",
          "name": "taskId",
          "type": "uint256"
        }
      ],
      "name": "taskCompleted",
      "outputs": [],
      "stateMutability": "nonpayable",
      "type": "function"
    },
    {
      "inputs": [],
      "name": "taskCount",
      "outputs": [
        {
          "internalType": "uint256",
          "name": "",
          "type": "uint256"
        }
      ],
      "stateMutability": "view",
      "type": "function"
    },
    {
      "inputs": [
        {
          "internalType": "uint256",
          "name": "",
          "type": "uint256"
        },
        {
          "internalType": "address",
          "name": "",
          "type": "address"
        }
      ],
      "name": "taskDone",
      "outputs": [
        {
          "internalType": "bool",
          "name": "",
          "type": "bool"
        }
      ],
      "stateMutability": "view",
      "type": "function"
    },
    {
      "inputs": [
        {
          "internalType": "uint256",
          "name": "",
          "type": "uint256"
        },
        {
          "internalType": "address",
          "name": "",
          "type": "address"
        }
      ],
      "name": "taskEligible",
      "outputs": [
        {
          "internalType": "bool",
          "name": "",
          "type": "bool"
        }
      ],
      "stateMutability": "view",
      "type": "function"
    },
    {
      "inputs": [
        {
          "internalType": "address",
          "name": "",
          "type": "address"
        }
      ],
      "name": "taskRegistrations",
      "outputs": [
        {
          "internalType": "uint256",
          "name": "",
          "type": "uint256"
        }
      ],
      "stateMutability": "view",
      "type": "function"
    },
    {
      "inputs": [
        {
          "internalType": "address",
          "name": "walletAddress",
          "type": "address"
        }
      ],
      "name": "terminateUser",
      "outputs": [],
      "stateMutability": "payable",
      "type": "function"
    },
    {
      "inputs": [],
      "name": "totalSupply",
      "outputs": [
        {
          "internalType": "uint256",
          "name": "",
          "type": "uint256"
        }
      ],
      "stateMutability": "view",
      "type": "function"
    },
    {
      "inputs": [
        {
          "internalType": "address",
          "name": "to",
          "type": "address"
        },
        {
          "internalType": "uint256",
          "name": "amount",
          "type": "uint256"
        }
      ],
      "name": "transfer",
      "outputs": [
        {
          "internalType": "bool",
          "name": "",
          "type": "bool"
        }
      ],
      "stateMutability": "nonpayable",
      "type": "function"
    },
    {
      "inputs": [
        {
          "internalType": "address",
          "name": "from",
          "type": "address"
        },
        {
          "internalType": "address",
          "name": "to",
          "type": "address"
        },
        {
          "internalType": "uint256",
          "name": "val",
          "type": "uint256"
        }
      ],
      "name": "transferFrom",
      "outputs": [
        {
          "internalType": "bool",
          "name": "",
          "type": "bool"
        }
      ],
      "stateMutability": "nonpayable",
      "type": "function"
    },
    {
      "inputs": [
        {
          "internalType": "address",
          "name": "newOwner",
          "type": "address"
        }
      ],
      "name": "transferOwnership",
      "outputs": [],
      "stateMutability": "nonpayable",
      "type": "function"
    },
    {
      "inputs": [
        {
          "internalType": "uint256",
          "name": "taskId",
          "type": "uint256"
        }
      ],
      "name": "undoTaskCompleted",
      "outputs": [],
      "stateMutability": "nonpayable",
      "type": "function"
    }
  ],
  "bytecode": "0x6080604052600680546001600160a01b031916331790556014805460ff191690553480156200002d57600080fd5b5060405180604001604052806008815260200167383937aa37b5b2b760c11b8152506040518060400160405280600381526020016250524f60e81b81525081600390805190602001906200008392919062000276565b5080516200009990600490602084019062000276565b505050620000b6620000b0620000fb60201b60201c565b620000ff565b620000c062000151565b620000d8336b204fce5e3e25026110000000620001b3565b336000908152600c60205260408120805460ff1916600117905560135562000380565b3390565b600580546001600160a01b038381166001600160a01b0319831681179093556040519116919082907f8be0079c531659141344cd1fd0a4f28419497f9722a3daafe3b4186f6b6457e090600090a35050565b6005546001600160a01b03163314620001b15760405162461bcd60e51b815260206004820181905260248201527f4f776e61626c653a2063616c6c6572206973206e6f7420746865206f776e657260448201526064015b60405180910390fd5b565b6001600160a01b0382166200020b5760405162461bcd60e51b815260206004820152601f60248201527f45524332303a206d696e7420746f20746865207a65726f2061646472657373006044820152606401620001a8565b80600260008282546200021f91906200031c565b90915550506001600160a01b038216600081815260208181526040808320805486019055518481527fddf252ad1be2c89b69c2b068fc378daa952ba7f163c4a11628f55a4df523b3ef910160405180910390a35050565b828054620002849062000343565b90600052602060002090601f016020900481019282620002a85760008555620002f3565b82601f10620002c357805160ff1916838001178555620002f3565b82800160010185558215620002f3579182015b82811115620002f3578251825591602001919060010190620002d6565b506200030192915062000305565b5090565b5b8082111562000301576000815560010162000306565b600082198211156200033e57634e487b7160e01b600052601160045260246000fd5b500190565b600181811c908216806200035857607f821691505b602082108114156200037a57634e487b7160e01b600052602260045260246000fd5b50919050565b613d5280620003906000396000f3fe6080604052600436106103815760003560e01c80637cbc9ae9116101d1578063b630724b11610102578063dd62ed3e116100a0578063edafadcd1161006f578063edafadcd14610a85578063f2fde38b14610acb578063fb84c54814610aeb578063fe1d3fd214610b2657600080fd5b8063dd62ed3e14610a0e578063e985fed514610a2e578063ea6c38ef14610a50578063ebddbaf614610a6357600080fd5b8063c48d899d116100dc578063c48d899d14610970578063c83bc9ab14610990578063ce2813aa146109d6578063ce6fa0d2146109fb57600080fd5b8063b630724b14610925578063b6cb58a514610945578063be1c766b1461095b57600080fd5b80639c4c6a3c1161016f578063a457c2d711610149578063a457c2d7146108a5578063a46ec622146108c5578063a9059cbb146108e5578063b4a99a4e1461090557600080fd5b80639c4c6a3c146108525780639f23b98d14610872578063a24539651461089257600080fd5b80638da5cb5b116101ab5780638da5cb5b146107d657806394828a451461080857806395d89b411461082a5780639b9501de1461083f57600080fd5b80637cbc9ae9146107625780637fea0249146107825780638873d394146107a257600080fd5b806339509351116102b65780635daf08ca1161025457806370a082311161022357806370a08231146106bc578063715018a6146106f25780637377469c146107075780637440481f1461072757600080fd5b80635daf08ca146105fb57806360ed621314610630578063655abaa9146106665780636bf472401461069c57600080fd5b80634d68205a116102905780634d68205a14610595578063507cd30f146105b5578063560f3192146105c85780635c60f226146105e857600080fd5b8063395093511461053d578063472905ca1461055d57806347e510641461057057600080fd5b806323b872dd1161032357806326b14249116102fd57806326b14249146104db5780632d345670146104fb578063313ce5671461050e57806332e5a7ea1461052a57600080fd5b806323b872dd1461045e57806324d7806c1461047e57806326b01d46146104ae57600080fd5b8063109607381161035f57806310960738146103f65780631201dfc61461040957806318160ddd146104295780631f7b6d321461044857600080fd5b806306fdde0314610386578063095ea7b3146103b15780630eeaf080146103e1575b600080fd5b34801561039257600080fd5b5061039b610b53565b6040516103a89190613411565b60405180910390f35b3480156103bd57600080fd5b506103d16103cc366004613447565b610be5565b60405190151581526020016103a8565b6103f46103ef366004613514565b610bff565b005b6103f4610404366004613562565b610d16565b34801561041557600080fd5b506103f461042436600461357d565b610dc8565b34801561043557600080fd5b506002545b6040519081526020016103a8565b34801561045457600080fd5b5061043a60135481565b34801561046a57600080fd5b506103d1610479366004613596565b610ea6565b34801561048a57600080fd5b506103d1610499366004613562565b600c6020526000908152604090205460ff1681565b3480156104ba57600080fd5b5061043a6104c9366004613562565b600f6020526000908152604090205481565b3480156104e757600080fd5b506103d16104f63660046135d2565b610f0f565b6103f4610509366004613562565b610f78565b34801561051a57600080fd5b50604051601281526020016103a8565b6103f46105383660046135fe565b610ff8565b34801561054957600080fd5b506103d1610558366004613447565b61104a565b6103f461056b366004613562565b61106c565b34801561057c57600080fd5b50336000908152600c602052604090205460ff166103d1565b3480156105a157600080fd5b506103f46105b0366004613643565b6110ef565b6103f46105c3366004613447565b6111db565b3480156105d457600080fd5b506103f46105e336600461357d565b6112b4565b6103f46105f6366004613562565b611361565b34801561060757600080fd5b5061061b61061636600461357d565b611487565b6040516103a899989796959493929190613674565b34801561063c57600080fd5b5061043a61064b366004613562565b6001600160a01b03166000908152600b602052604090205490565b34801561067257600080fd5b5061043a610681366004613562565b6001600160a01b03166000908152600f602052604090205490565b3480156106a857600080fd5b506103f46106b7366004613447565b611698565b3480156106c857600080fd5b5061043a6106d7366004613562565b6001600160a01b031660009081526020819052604090205490565b3480156106fe57600080fd5b506103f46116ee565b34801561071357600080fd5b506103f46107223660046135d2565b611702565b34801561073357600080fd5b506103d16107423660046135d2565b601060209081526000928352604080842090915290825290205460ff1681565b34801561076e57600080fd5b506103f461077d3660046136f4565b611797565b34801561078e57600080fd5b506103f461079d36600461357d565b611960565b3480156107ae57600080fd5b506107c26107bd36600461357d565b611abd565b6040516103a8989796959493929190613761565b3480156107e257600080fd5b506005546001600160a01b03165b6040516001600160a01b0390911681526020016103a8565b34801561081457600080fd5b5061081d611c30565b6040516103a891906137c4565b34801561083657600080fd5b5061039b611e04565b6103f461084d366004613447565b611e13565b34801561085e57600080fd5b5061039b61086d3660046135d2565b611e90565b34801561087e57600080fd5b5061039b61088d3660046135d2565b611f35565b6103f46108a0366004613562565b611fec565b3480156108b157600080fd5b506103d16108c0366004613447565b61206e565b3480156108d157600080fd5b506103f46108e036600461357d565b6120e9565b3480156108f157600080fd5b506103d1610900366004613447565b612213565b34801561091157600080fd5b506006546107f0906001600160a01b031681565b34801561093157600080fd5b5061039b610940366004613562565b612221565b34801561095157600080fd5b5061043a60085481565b34801561096757600080fd5b5060135461043a565b34801561097c57600080fd5b506103f461098b36600461357d565b6122cd565b34801561099c57600080fd5b506103d16109ab3660046135d2565b60009182526010602090815260408084206001600160a01b0393909316845291905290205460ff1690565b3480156109e257600080fd5b50336000908152600d602052604090205460ff166103d1565b6103f4610a0936600461357d565b612380565b348015610a1a57600080fd5b5061043a610a29366004613893565b612529565b348015610a3a57600080fd5b50610a43612554565b6040516103a891906138bd565b6103f4610a5e36600461390a565b6125b5565b348015610a6f57600080fd5b50610a786128f1565b6040516103a89190613a26565b348015610a9157600080fd5b506103d1610aa03660046135d2565b60009182526011602090815260408084206001600160a01b0393909316845291905290205460ff1690565b348015610ad757600080fd5b506103f4610ae6366004613562565b612b5d565b348015610af757600080fd5b506103d1610b063660046135d2565b601160209081526000928352604080842090915290825290205460ff1681565b348015610b3257600080fd5b50610b46610b41366004613a88565b612bd6565b6040516103a89190613ac5565b606060038054610b6290613ad8565b80601f0160208091040260200160405190810160405280929190818152602001828054610b8e90613ad8565b8015610bdb5780601f10610bb057610100808354040283529160200191610bdb565b820191906000526020600020905b815481529060010190602001808311610bbe57829003601f168201915b5050505050905090565b600033610bf3818585612efc565b60019150505b92915050565b336000908152600c602052604090205460ff16610c5d5760405162461bcd60e51b8152602060048201526017602482015276139bdb8818591b5a5b881858d8d95cdcc819195b9a5959604a1b60448201526064015b60405180910390fd5b6001600160a01b0382166000908152600b6020526040902054600a8054600192908110610c8c57610c8c613b0d565b906000526020600020906008020160030160016101000a81548160ff02191690831515021790555080600a600b6000856001600160a01b03166001600160a01b031681526020019081526020016000205481548110610ced57610ced613b0d565b90600052602060002090600802016004019080519060200190610d119291906132ea565b505050565b336000908152600c602052604090205460ff16610d6f5760405162461bcd60e51b8152602060048201526017602482015276139bdb8818591b5a5b881858d8d95cdcc819195b9a5959604a1b6044820152606401610c54565b6001600160a01b0381166000908152600b6020526040812054600a80549091908110610d9d57610d9d613b0d565b906000526020600020906008020160030160016101000a81548160ff02191690831515021790555050565b336000908152600c602052604090205460ff161515600114610dfc5760405162461bcd60e51b8152600401610c5490613b23565b60078181548110610e0f57610e0f613b0d565b600091825260209091206004600890920201015460ff161515600114610e6c5760405162461bcd60e51b81526020600482015260126024820152711a5d1cc8185b1c9958591e4818db1bdcd95960721b6044820152606401610c54565b600060078281548110610e8157610e81613b0d565b60009182526020909120600890910201600401805460ff191691151591909117905550565b60145460009060ff161515600114610eed5760405162461bcd60e51b815260206004820152600a60248201526915dc9bdb99c810d85b1b60b21b6044820152606401610c54565b33610ef9858285613020565b610f0485858561309a565b506001949350505050565b336000908152600c602052604081205460ff161515600114610f435760405162461bcd60e51b8152600401610c5490613b23565b60008381526010602090815260408083206001600160a01b03861684529091529020805460ff19166001179055506001610bf9565b336000908152600c602052604090205460ff16610fd75760405162461bcd60e51b815260206004820152601860248201527f4e6f6e2061646d696e20616363657373207265766f6b656400000000000000006044820152606401610c54565b6001600160a01b03166000908152600c60205260409020805460ff19169055565b6001600160a01b0381166000908152600b6020526040902054600a8054849290811061102657611026613b0d565b90600052602060002090600802016001019080519060200190610d119291906132ea565b600033610bf381858561105d8383612529565b6110679190613b7a565b612efc565b336000908152600c602052604090205460ff166110cb5760405162461bcd60e51b815260206004820152601860248201527f4e6f6e2061646d696e20206163636573732064656e69656400000000000000006044820152606401610c54565b6001600160a01b03166000908152600c60205260409020805460ff19166001179055565b336000908152600d602052604090205460ff166111465760405162461bcd60e51b81526020600482015260156024820152742737ba103932b3b4b9ba32b932b21036b2b6b132b960591b6044820152606401610c54565b336000908152600f6020526040902082905560078054600191908490811061117057611170613b0d565b906000526020600020906008020160050160008282546111909190613b7a565b9091555050600082815260116020908152604080832033808552908352818420805460ff191660011790558584526012835281842090845282529091208251610d11928401906132ea565b336000908152600c602052604090205460ff1661120a5760405162461bcd60e51b8152600401610c5490613b92565b6001600160a01b0382166000908152600b6020526040902054600a8054839290811061123857611238613b0d565b906000526020600020906008020160020160008282546112589190613b7a565b90915550506001600160a01b0382166000908152600b6020526040902054600a8054839290811061128b5761128b613b0d565b906000526020600020906008020160060160008282546112ab9190613b7a565b90915550505050565b336000908152600c602052604090205460ff1615156001146112e85760405162461bcd60e51b8152600401610c5490613b23565b600781815481106112fb576112fb613b0d565b6000918252602082206008909102018181559061131b600183018261336e565b61132960028301600061336e565b5060006003820181905560048201805460ff19169055600582018190556006820180546001600160a01b031916905560079091015550565b336000908152600c602052604090205460ff166113905760405162461bcd60e51b8152600401610c5490613b92565b6001600160a01b0381166000908152600d602052604090205460ff166113f05760405162461bcd60e51b815260206004820152601560248201527452656769737465726564207573657273206f6e6c7960581b6044820152606401610c54565b6001600160a01b0381166000908152600b6020526040812054600a8054909190811061141e5761141e613b0d565b60009182526020808320600360089093020191909101805493151560ff199485161790556001600160a01b038416808352600d8252604080842080549095169094558351808301808652848252918452600990925292909120905161148392906132ea565b5050565b600a818154811061149757600080fd5b90600052602060002090600802016000915090508060000180546114ba90613ad8565b80601f01602080910402602001604051908101604052809291908181526020018280546114e690613ad8565b80156115335780601f1061150857610100808354040283529160200191611533565b820191906000526020600020905b81548152906001019060200180831161151657829003601f168201915b50505050509080600101805461154890613ad8565b80601f016020809104026020016040519081016040528092919081815260200182805461157490613ad8565b80156115c15780601f10611596576101008083540402835291602001916115c1565b820191906000526020600020905b8154815290600101906020018083116115a457829003601f168201915b505050600284015460038501546004860180549596929560ff80841696506101009093049092169350906115f490613ad8565b80601f016020809104026020016040519081016040528092919081815260200182805461162090613ad8565b801561166d5780601f106116425761010080835404028352916020019161166d565b820191906000526020600020905b81548152906001019060200180831161165057829003601f168201915b505050506005830154600684015460079094015492936001600160a01b039091169290915060ff1689565b6116a061323e565b6001600160a01b0382166000908152600d602052604090205460ff166116d85760405162461bcd60e51b8152600401610c5490613bc9565b610d11826103cc83670de0b6b3a7640000613bf1565b6116f661323e565b6117006000613298565b565b336000908152600c602052604090205460ff1615156001146117365760405162461bcd60e51b8152600401610c5490613b23565b60008281526010602090815260408083206001600160a01b038516845290915290205460ff16151560011461176a57600080fd5b60009182526010602090815260408084206001600160a01b0390931684529190529020805460ff19169055565b336000908152600c602052604090205460ff161515600114806117fd5750336000908152600b6020526040902054600a805490919081106117da576117da613b0d565b600091825260209091206003600890920201015460ff6101009091041615156001145b6118195760405162461bcd60e51b8152600401610c5490613b23565b6040805161010081018252600880548252602080830187815293830186905260608301859052600160808401819052600060a085018190523360c08601524260e08601526007805492830181559052835192027fa66cc928b5edb82af9bd49922954155ab7b0942694bea4ce44661d9a8736c688810192835593518051939492936118cb937fa66cc928b5edb82af9bd49922954155ab7b0942694bea4ce44661d9a8736c689019291909101906132ea565b50604082015180516118e79160028401916020909101906132ea565b5060608201516003820155608082015160048201805460ff191691151591909117905560a0820151600582015560c08201516006820180546001600160a01b0319166001600160a01b0390921691909117905560e0909101516007909101556008805490600061195683613c10565b9190505550505050565b600081815260116020908152604080832033845290915290205460ff166119c95760405162461bcd60e51b815260206004820152601c60248201527f55736572206e6f74207265676973746572656420666f72207461736b000000006044820152606401610c54565b336000908152600d602052604090205460ff161515600114611a2d5760405162461bcd60e51b815260206004820152601760248201527f4e6f7420612072656769737465726564206d656d6265720000000000000000006044820152606401610c54565b60078181548110611a4057611a40613b0d565b600091825260209091206004600890920201015460ff161515600114611a975760405162461bcd60e51b815260206004820152600c60248201526b15185cdac81a5b9d985b1a5960a21b6044820152606401610c54565b60009081526010602090815260408083203384529091529020805460ff19166001179055565b60078181548110611acd57600080fd5b60009182526020909120600890910201805460018201805491935090611af290613ad8565b80601f0160208091040260200160405190810160405280929190818152602001828054611b1e90613ad8565b8015611b6b5780601f10611b4057610100808354040283529160200191611b6b565b820191906000526020600020905b815481529060010190602001808311611b4e57829003601f168201915b505050505090806002018054611b8090613ad8565b80601f0160208091040260200160405190810160405280929190818152602001828054611bac90613ad8565b8015611bf95780601f10611bce57610100808354040283529160200191611bf9565b820191906000526020600020905b815481529060010190602001808311611bdc57829003601f168201915b5050505060038301546004840154600585015460068601546007909601549495929460ff9092169350916001600160a01b03169088565b60606007805480602002602001604051908101604052809291908181526020016000905b82821015611dfb57838290600052602060002090600802016040518061010001604052908160008201548152602001600182018054611c9290613ad8565b80601f0160208091040260200160405190810160405280929190818152602001828054611cbe90613ad8565b8015611d0b5780601f10611ce057610100808354040283529160200191611d0b565b820191906000526020600020905b815481529060010190602001808311611cee57829003601f168201915b50505050508152602001600282018054611d2490613ad8565b80601f0160208091040260200160405190810160405280929190818152602001828054611d5090613ad8565b8015611d9d5780601f10611d7257610100808354040283529160200191611d9d565b820191906000526020600020905b815481529060010190602001808311611d8057829003601f168201915b50505091835250506003820154602080830191909152600483015460ff16151560408301526005830154606083015260068301546001600160a01b0316608083015260079092015460a0909101529082526001929092019101611c54565b50505050905090565b606060048054610b6290613ad8565b336000908152600c602052604090205460ff16611e425760405162461bcd60e51b8152600401610c5490613b92565b6001600160a01b0382166000908152600b6020526040902054600a80548392908110611e7057611e70613b0d565b906000526020600020906008020160020160008282546112ab9190613c2b565b601260209081526000928352604080842090915290825290208054611eb490613ad8565b80601f0160208091040260200160405190810160405280929190818152602001828054611ee090613ad8565b8015611f2d5780601f10611f0257610100808354040283529160200191611f2d565b820191906000526020600020905b815481529060010190602001808311611f1057829003601f168201915b505050505081565b60008281526012602090815260408083206001600160a01b03851684529091529020805460609190611f6690613ad8565b80601f0160208091040260200160405190810160405280929190818152602001828054611f9290613ad8565b8015611fdf5780601f10611fb457610100808354040283529160200191611fdf565b820191906000526020600020905b815481529060010190602001808311611fc257829003601f168201915b5050505050905092915050565b336000908152600c602052604090205460ff1661201b5760405162461bcd60e51b8152600401610c5490613b92565b6001600160a01b0381166000908152600b6020526040812054600a8054909190811061204957612049613b0d565b60009182526020909120600890910201600301805460ff191691151591909117905550565b6000338161207c8286612529565b9050838110156120dc5760405162461bcd60e51b815260206004820152602560248201527f45524332303a2064656372656173656420616c6c6f77616e63652062656c6f77604482015264207a65726f60d81b6064820152608401610c54565b610f048286868403612efc565b600081815260116020908152604080832033845290915290205460ff166121525760405162461bcd60e51b815260206004820152601c60248201527f55736572206e6f74207265676973746572656420666f72207461736b000000006044820152606401610c54565b336000908152600d602052604090205460ff1615156001146121865760405162461bcd60e51b8152600401610c5490613bc9565b6007818154811061219957612199613b0d565b600091825260209091206004600890920201015460ff1615156001146121f05760405162461bcd60e51b815260206004820152600c60248201526b15185cdac81a5b9d985b1a5960a21b6044820152606401610c54565b60009081526010602090815260408083203384529091529020805460ff19169055565b600033610bf381858561309a565b6001600160a01b038116600090815260096020526040902080546060919061224890613ad8565b80601f016020809104026020016040519081016040528092919081815260200182805461227490613ad8565b80156122c15780601f10612296576101008083540402835291602001916122c1565b820191906000526020600020905b8154815290600101906020018083116122a457829003601f168201915b50505050509050919050565b336000908152600c602052604090205460ff1615156001146123015760405162461bcd60e51b8152600401610c5490613b23565b6007818154811061231457612314613b0d565b600091825260209091206004600890920201015460ff161561236b5760405162461bcd60e51b815260206004820152601060248201526f34ba399030b63932b0b23c9037b832b760811b6044820152606401610c54565b600160078281548110610e8157610e81613b0d565b336000908152600d602052604090205460ff166123af5760405162461bcd60e51b8152600401610c5490613bc9565b336000908152600b6020526040812054600a805490919081106123d4576123d4613b0d565b906000526020600020906008020160020154116124275760405162461bcd60e51b81526020600482015260116024820152704e6f7420656e6f75676820506f696e747360781b6044820152606401610c54565b336000908152600b6020526040902054600a8054909190811061244c5761244c613b0d565b9060005260206000209060080201600601548111156124a15760405162461bcd60e51b81526020600482015260116024820152704e6f7420656e6f75676820506f696e747360781b6044820152606401610c54565b336000908152600b6020526040902054600a805483929081106124c6576124c6613b0d565b906000526020600020906008020160060160008282546124e69190613c2b565b90915550506014805460ff1916600117905560065461251b906001600160a01b03163361047984670de0b6b3a7640000613bf1565b50506014805460ff19169055565b6001600160a01b03918216600090815260016020908152604080832093909416825291909152205490565b6060600e805480602002602001604051908101604052809291908181526020018280548015610bdb57602002820191906000526020600020905b81546001600160a01b0316815260019091019060200180831161258e575050505050905090565b336000908152600d602052604090205460ff16156126155760405162461bcd60e51b815260206004820152601760248201527f5573657220616c726561647920726567697374657265640000000000000000006044820152606401610c54565b604051636132d0e560e01b815233600482015273c15a65d129d2a3d4c4ea10270755f15e6fcf5b4290636132d0e59060240160206040518083038186803b15801561265f57600080fd5b505afa158015612673573d6000803e3d6000fd5b505050506040513d601f19601f820116820180604052508101906126979190613c42565b15156001146126e85760405162461bcd60e51b815260206004820152601d60248201527f4e6f7420656e726f6c6c656420696e2074686520436f6d6d756e6974790000006044820152606401610c54565b336000908152600d60209081526040808320805460ff1916600190811790915560138054600b909452918420839055929091612725908490613b7a565b9091555050600e805460018181019092557fbb7b4a454dc3493923482f07822329ed19e8244eff582cc204f8554c3620c3fd0180546001600160a01b0319163390811790915560408051610120810182528581526020818101869052600082840181905260608301869052608083018190528351808501909452600684526536b2b6b132b960d11b8483015260a083019390935260c082019390935260e081018290526101008101829052600a805494850181559091528051805191936008027fc65a7bb8d6351c1cf70c95a316cc6a92839c986682d98bc35f958f4883f9d2a80192612817928492909101906132ea565b50602082810151805161283092600185019201906132ea565b50604082015160028201556060820151600382018054608085015115156101000261ff00199315159390931661ffff199091161791909117905560a082015180516128859160048401916020909101906132ea565b5060c08201516005820180546001600160a01b0319166001600160a01b0390921691909117905560e08201516006820155610100909101516007909101805460ff19169115159190911790553360009081526009602090815260409091208251610d11928401906132ea565b6060600a805480602002602001604051908101604052809291908181526020016000905b82821015611dfb57838290600052602060002090600802016040518061012001604052908160008201805461294990613ad8565b80601f016020809104026020016040519081016040528092919081815260200182805461297590613ad8565b80156129c25780601f10612997576101008083540402835291602001916129c2565b820191906000526020600020905b8154815290600101906020018083116129a557829003601f168201915b505050505081526020016001820180546129db90613ad8565b80601f0160208091040260200160405190810160405280929190818152602001828054612a0790613ad8565b8015612a545780601f10612a2957610100808354040283529160200191612a54565b820191906000526020600020905b815481529060010190602001808311612a3757829003601f168201915b505050918352505060028201546020820152600382015460ff808216151560408401526101009091041615156060820152600482018054608090920191612a9a90613ad8565b80601f0160208091040260200160405190810160405280929190818152602001828054612ac690613ad8565b8015612b135780601f10612ae857610100808354040283529160200191612b13565b820191906000526020600020905b815481529060010190602001808311612af657829003601f168201915b505050918352505060058201546001600160a01b03166020808301919091526006830154604083015260079092015460ff1615156060909101529082526001929092019101612915565b612b6561323e565b6001600160a01b038116612bca5760405162461bcd60e51b815260206004820152602660248201527f4f776e61626c653a206e6577206f776e657220697320746865207a65726f206160448201526564647265737360d01b6064820152608401610c54565b612bd381613298565b50565b604080516101208101825260608082526020820181905260009282018390528082018390526080820183905260a082015260c0810182905260e081018290526101008101829052905b600a54811015612ef65782604051602001612c3a9190613c64565b60405160208183030381529060405280519060200120600a8281548110612c6357612c63613b0d565b9060005260206000209060080201600101604051602001612c849190613c80565b604051602081830303815290604052805190602001201415612ee457600a8181548110612cb357612cb3613b0d565b906000526020600020906008020160405180610120016040529081600082018054612cdd90613ad8565b80601f0160208091040260200160405190810160405280929190818152602001828054612d0990613ad8565b8015612d565780601f10612d2b57610100808354040283529160200191612d56565b820191906000526020600020905b815481529060010190602001808311612d3957829003601f168201915b50505050508152602001600182018054612d6f90613ad8565b80601f0160208091040260200160405190810160405280929190818152602001828054612d9b90613ad8565b8015612de85780601f10612dbd57610100808354040283529160200191612de8565b820191906000526020600020905b815481529060010190602001808311612dcb57829003601f168201915b505050918352505060028201546020820152600382015460ff808216151560408401526101009091041615156060820152600482018054608090920191612e2e90613ad8565b80601f0160208091040260200160405190810160405280929190818152602001828054612e5a90613ad8565b8015612ea75780601f10612e7c57610100808354040283529160200191612ea7565b820191906000526020600020905b815481529060010190602001808311612e8a57829003601f168201915b505050918352505060058201546001600160a01b031660208201526006820154604082015260079091015460ff1615156060909101529392505050565b80612eee81613c10565b915050612c1f565b50919050565b6001600160a01b038316612f5e5760405162461bcd60e51b8152602060048201526024808201527f45524332303a20617070726f76652066726f6d20746865207a65726f206164646044820152637265737360e01b6064820152608401610c54565b6001600160a01b038216612fbf5760405162461bcd60e51b815260206004820152602260248201527f45524332303a20617070726f766520746f20746865207a65726f206164647265604482015261737360f01b6064820152608401610c54565b6001600160a01b0383811660008181526001602090815260408083209487168084529482529182902085905590518481527f8c5be1e5ebec7d5bd14f71427d1e84f3dd0314c0f7b2291e5b200ac8c7c3b925910160405180910390a3505050565b600061302c8484612529565b9050600019811461309457818110156130875760405162461bcd60e51b815260206004820152601d60248201527f45524332303a20696e73756666696369656e7420616c6c6f77616e63650000006044820152606401610c54565b6130948484848403612efc565b50505050565b6001600160a01b0383166130fe5760405162461bcd60e51b815260206004820152602560248201527f45524332303a207472616e736665722066726f6d20746865207a65726f206164604482015264647265737360d81b6064820152608401610c54565b6001600160a01b0382166131605760405162461bcd60e51b815260206004820152602360248201527f45524332303a207472616e7366657220746f20746865207a65726f206164647260448201526265737360e81b6064820152608401610c54565b6001600160a01b038316600090815260208190526040902054818110156131d85760405162461bcd60e51b815260206004820152602660248201527f45524332303a207472616e7366657220616d6f756e7420657863656564732062604482015265616c616e636560d01b6064820152608401610c54565b6001600160a01b03848116600081815260208181526040808320878703905593871680835291849020805487019055925185815290927fddf252ad1be2c89b69c2b068fc378daa952ba7f163c4a11628f55a4df523b3ef910160405180910390a3613094565b6005546001600160a01b031633146117005760405162461bcd60e51b815260206004820181905260248201527f4f776e61626c653a2063616c6c6572206973206e6f7420746865206f776e65726044820152606401610c54565b600580546001600160a01b038381166001600160a01b0319831681179093556040519116919082907f8be0079c531659141344cd1fd0a4f28419497f9722a3daafe3b4186f6b6457e090600090a35050565b8280546132f690613ad8565b90600052602060002090601f016020900481019282613318576000855561335e565b82601f1061333157805160ff191683800117855561335e565b8280016001018555821561335e579182015b8281111561335e578251825591602001919060010190613343565b5061336a9291506133a4565b5090565b50805461337a90613ad8565b6000825580601f1061338a575050565b601f016020900490600052602060002090810190612bd391905b5b8082111561336a57600081556001016133a5565b60005b838110156133d45781810151838201526020016133bc565b838111156130945750506000910152565b600081518084526133fd8160208601602086016133b9565b601f01601f19169290920160200192915050565b60208152600061342460208301846133e5565b9392505050565b80356001600160a01b038116811461344257600080fd5b919050565b6000806040838503121561345a57600080fd5b6134638361342b565b946020939093013593505050565b634e487b7160e01b600052604160045260246000fd5b600082601f83011261349857600080fd5b813567ffffffffffffffff808211156134b3576134b3613471565b604051601f8301601f19908116603f011681019082821181831017156134db576134db613471565b816040528381528660208588010111156134f457600080fd5b836020870160208301376000602085830101528094505050505092915050565b6000806040838503121561352757600080fd5b6135308361342b565b9150602083013567ffffffffffffffff81111561354c57600080fd5b61355885828601613487565b9150509250929050565b60006020828403121561357457600080fd5b6134248261342b565b60006020828403121561358f57600080fd5b5035919050565b6000806000606084860312156135ab57600080fd5b6135b48461342b565b92506135c26020850161342b565b9150604084013590509250925092565b600080604083850312156135e557600080fd5b823591506135f56020840161342b565b90509250929050565b6000806040838503121561361157600080fd5b823567ffffffffffffffff81111561362857600080fd5b61363485828601613487565b9250506135f56020840161342b565b6000806040838503121561365657600080fd5b82359150602083013567ffffffffffffffff81111561354c57600080fd5b60006101208083526136888184018d6133e5565b9050828103602084015261369c818c6133e5565b90508960408401528815156060840152871515608084015282810360a08401526136c681886133e5565b6001600160a01b039690961660c0840152505060e08101929092521515610100909101529695505050505050565b60008060006060848603121561370957600080fd5b833567ffffffffffffffff8082111561372157600080fd5b61372d87838801613487565b9450602086013591508082111561374357600080fd5b5061375086828701613487565b925050604084013590509250925092565b60006101008a835280602084015261377b8184018b6133e5565b9050828103604084015261378f818a6133e5565b60608401989098525050931515608085015260a08401929092526001600160a01b031660c083015260e0909101529392505050565b60006020808301818452808551808352604092508286019150828160051b87010184880160005b8381101561388557603f1989840301855281516101008151855288820151818a87015261381a828701826133e5565b915050878201518582038987015261383282826133e5565b6060848101519088015260808085015115159088015260a0808501519088015260c0808501516001600160a01b03169088015260e0938401519390960192909252505093860193908601906001016137eb565b509098975050505050505050565b600080604083850312156138a657600080fd5b6138af8361342b565b91506135f56020840161342b565b6020808252825182820181905260009190848201906040850190845b818110156138fe5783516001600160a01b0316835292840192918401916001016138d9565b50909695505050505050565b6000806040838503121561391d57600080fd5b823567ffffffffffffffff8082111561393557600080fd5b61394186838701613487565b9350602085013591508082111561395757600080fd5b5061355885828601613487565b6000610120825181855261397a828601826133e5565b9150506020830151848203602086015261399482826133e5565b9150506040830151604085015260608301516139b4606086018215159052565b5060808301516139c8608086018215159052565b5060a083015184820360a08601526139e082826133e5565b91505060c08301516139fd60c08601826001600160a01b03169052565b5060e083015160e085015261010080840151613a1c8287018215159052565b5090949350505050565b6000602080830181845280855180835260408601915060408160051b870101925083870160005b82811015613a7b57603f19888603018452613a69858351613964565b94509285019290850190600101613a4d565b5092979650505050505050565b600060208284031215613a9a57600080fd5b813567ffffffffffffffff811115613ab157600080fd5b613abd84828501613487565b949350505050565b6020815260006134246020830184613964565b600181811c90821680613aec57607f821691505b60208210811415612ef657634e487b7160e01b600052602260045260246000fd5b634e487b7160e01b600052603260045260246000fd5b60208082526021908201527f4f6e6c792061646d696e2063616e2063616c6c20746869732066756e6374696f6040820152603760f91b606082015260800190565b634e487b7160e01b600052601160045260246000fd5b60008219821115613b8d57613b8d613b64565b500190565b60208082526017908201527f4e6f6e2d61646d696e206163636573732064656e696564000000000000000000604082015260600190565b6020808252600e908201526d139bdd081c9959da5cdd195c995960921b604082015260600190565b6000816000190483118215151615613c0b57613c0b613b64565b500290565b6000600019821415613c2457613c24613b64565b5060010190565b600082821015613c3d57613c3d613b64565b500390565b600060208284031215613c5457600080fd5b8151801515811461342457600080fd5b60008251613c768184602087016133b9565b9190910192915050565b600080835481600182811c915080831680613c9c57607f831692505b6020808410821415613cbc57634e487b7160e01b86526022600452602486fd5b818015613cd05760018114613ce157613d0e565b60ff19861689528489019650613d0e565b60008a81526020902060005b86811015613d065781548b820152908501908301613ced565b505084890196505b50949897505050505050505056fea2646970667358221220ee5284eb3dd0fffdd74d3bb54b2895fff10157d6fb84619c16fd216959f9844a64736f6c63430008090033",
  "linkReferences": {},
  "deployedLinkReferences": {}
}